{
  "_format": "hh-sol-artifact-1",
  "contractName": "simpleOrder",
  "sourceName": "contracts/TestContract/simpleOrder.sol",
  "abi": [
    {
      "inputs": [
        {
          "internalType": "address",
          "name": "whitelist",
          "type": "address"
        }
      ],
      "stateMutability": "nonpayable",
      "type": "constructor"
    },
    {
      "anonymous": false,
      "inputs": [
        {
          "indexed": false,
          "internalType": "string",
          "name": "orderId",
          "type": "string"
        },
        {
          "indexed": true,
          "internalType": "address",
          "name": "shipper",
          "type": "address"
        }
      ],
      "name": "OrderCreated",
      "type": "event"
    },
    {
      "anonymous": false,
      "inputs": [
        {
          "indexed": false,
          "internalType": "string",
          "name": "orderId",
          "type": "string"
        },
        {
          "indexed": false,
          "internalType": "uint256",
          "name": "code",
          "type": "uint256"
        }
      ],
      "name": "OrderUpdated",
      "type": "event"
    },
    {
      "inputs": [
        {
          "internalType": "string",
          "name": "strOrderId",
          "type": "string"
        },
        {
          "internalType": "uint256",
          "name": "routeCount",
          "type": "uint256"
        },
        {
          "internalType": "uint256",
          "name": "code",
          "type": "uint256"
        }
      ],
      "name": "createOrder",
      "outputs": [],
      "stateMutability": "nonpayable",
      "type": "function"
    },
    {
      "inputs": [
        {
          "internalType": "uint256",
          "name": "",
          "type": "uint256"
        }
      ],
      "name": "customerEoa",
      "outputs": [
        {
          "internalType": "address",
          "name": "",
          "type": "address"
        }
      ],
      "stateMutability": "view",
      "type": "function"
    },
    {
      "inputs": [
        {
          "internalType": "string",
          "name": "strOrderId",
          "type": "string"
        }
      ],
      "name": "getOrderCode",
      "outputs": [
        {
          "internalType": "uint256",
          "name": "result",
          "type": "uint256"
        }
      ],
      "stateMutability": "view",
      "type": "function"
    },
    {
      "inputs": [
        {
          "internalType": "string",
          "name": "strOrderId",
          "type": "string"
        }
      ],
      "name": "getOrderRouteCount",
      "outputs": [
        {
          "internalType": "uint256",
          "name": "result",
          "type": "uint256"
        }
      ],
      "stateMutability": "view",
      "type": "function"
    },
    {
      "inputs": [
        {
          "internalType": "string",
          "name": "strOrderId",
          "type": "string"
        }
      ],
      "name": "getOrders",
      "outputs": [
        {
          "components": [
            {
              "internalType": "uint256",
              "name": "routeCount",
              "type": "uint256"
            },
            {
              "internalType": "uint256",
              "name": "code",
              "type": "uint256"
            },
            {
              "internalType": "bool",
              "name": "flag",
              "type": "bool"
            }
          ],
          "internalType": "struct Common.Order",
          "name": "",
          "type": "tuple"
        }
      ],
      "stateMutability": "view",
      "type": "function"
    },
    {
      "inputs": [
        {
          "internalType": "string",
          "name": "strOrderId",
          "type": "string"
        },
        {
          "internalType": "uint256",
          "name": "code",
          "type": "uint256"
        }
      ],
      "name": "updateOrder",
      "outputs": [],
      "stateMutability": "nonpayable",
      "type": "function"
    }
  ],
  "bytecode": "0x608060405234801561001057600080fd5b506040516106f83803806106f883398101604081905261002f91610054565b600180546001600160a01b0319166001600160a01b0392909216919091179055610084565b60006020828403121561006657600080fd5b81516001600160a01b038116811461007d57600080fd5b9392505050565b610665806100936000396000f3fe608060405234801561001057600080fd5b50600436106100625760003560e01c80639b9cb60f146100675780639ffc156c1461008d578063b8fc59ba146100a0578063eafdd83b146100b5578063ef010669146100e0578063f42e7699146100f3575b600080fd5b61007a610075366004610497565b61012a565b6040519081526020015b60405180910390f35b61007a61009b366004610497565b61014f565b6100b36100ae3660046104d4565b610171565b005b6100c86100c3366004610522565b61025e565b6040516001600160a01b039091168152602001610084565b6100b36100ee36600461053b565b610288565b610106610101366004610497565b610365565b60408051825181526020808401519082015291810151151590820152606001610084565b600080610136836103d7565b6000908152600260205260409020600101549392505050565b60008061015b836103d7565b6000908152600260205260409020549392505050565b600061017c846103d7565b6000818152600260205260409020549091501580156101ae57506000818152600260208190526040909120015460ff16155b6101f75760405162461bcd60e51b81526020600482015260156024820152741bdc99195c88185b1c9958591e4818dc99585d1959605a1b60448201526064015b60405180910390fd5b600081815260026020819052604091829020858155908101805460ff19166001908117909155018390555133907ebfe3e38a44c240d62c74b7087a28fbee1d69d6f215535d49241fd7af1a1199906102509087906105cd565b60405180910390a250505050565b6000818154811061026e57600080fd5b6000918252602090912001546001600160a01b0316905081565b6000610293836103d7565b6000818152600260208190526040909120015490915060ff1615156001146102f35760405162461bcd60e51b81526020600482015260136024820152726f72646572206973206e6f742065786973747360681b60448201526064016101ee565b60008181526002602052604090205461030d9060016105e7565b600082815260026020526040908190209182556001909101839055517f7b13be427eb67cc6c6ba2b72acfca515c8b3053ec58baaac8fe7f416b2c5afb790610358908590859061060d565b60405180910390a1505050565b61038b604051806060016040528060008152602001600081526020016000151581525090565b6000610396836103d7565b6000908152600260208181526040928390208351606081018552815481526001820154928101929092529091015460ff161515918101919091529392505050565b805160009082906103eb5750600092915050565b50506020015190565b634e487b7160e01b600052604160045260246000fd5b600082601f83011261041b57600080fd5b813567ffffffffffffffff80821115610436576104366103f4565b604051601f8301601f19908116603f0116810190828211818310171561045e5761045e6103f4565b8160405283815286602085880101111561047757600080fd5b836020870160208301376000602085830101528094505050505092915050565b6000602082840312156104a957600080fd5b813567ffffffffffffffff8111156104c057600080fd5b6104cc8482850161040a565b949350505050565b6000806000606084860312156104e957600080fd5b833567ffffffffffffffff81111561050057600080fd5b61050c8682870161040a565b9660208601359650604090950135949350505050565b60006020828403121561053457600080fd5b5035919050565b6000806040838503121561054e57600080fd5b823567ffffffffffffffff81111561056557600080fd5b6105718582860161040a565b95602094909401359450505050565b6000815180845260005b818110156105a65760208185018101518683018201520161058a565b818111156105b8576000602083870101525b50601f01601f19169290920160200192915050565b6020815260006105e06020830184610580565b9392505050565b6000821982111561060857634e487b7160e01b600052601160045260246000fd5b500190565b6040815260006106206040830185610580565b9050826020830152939250505056fea2646970667358221220c2d4f402734682e93c86e6bc54771583fe4466b6e02604768c79711bb094523064736f6c63430008090033",
  "linkReferences": {},
  "deployedLinkReferences": {}
}